:020000040800F2
:1000000000280020AD060008FD060008FD060008D7
:10001000FD060008FD060008FD06000800000000BF
:10002000000000000000000000000000FD060008C5
:10003000FD06000800000000FD060008FD0600089F
:10004000FD060008FD060008FD060008FD06000884
:10005000FD060008FD060008FD060008FD06000874
:10006000FD060008FD060008FD060008FD06000864
:10007000FD060008FD060008FD060008FD06000854
:10008000FD060008FD060008FD060008FD06000844
:10009000FD060008FD060008FD060008FD06000834
:1000A000FD060008FD060008FD060008FD06000824
:1000B000FD060008FD060008FD060008FD06000814
:1000C000FD060008FD060008FD060008FD06000804
:1000D000FD060008FD060008FD060008FD060008F4
:1000E000FD060008FD06000800000000FD060008EF
:1000F000FD060008FD060008FD060008FD060008D4
:10010000FD060008FD060008FD060008FD060008C3
:10011000FD060008FD060008FD060008FD060008B3
:10012000FD060008FD060008FD060008FD060008A3
:1001300010B5054C237833B9044B13B10448AFF321
:1001400000800123237010BD00000020000000008B
:100150004807000808B5034B1BB103490348AFF338
:10016000008008BD000000000400002048070008CF
:1001700081F0004102E000BF83F0004330B54FEA58
:1001800041044FEA430594EA050F08BF90EA020FC5
:100190001FBF54EA000C55EA020C7FEA645C7FEA58
:1001A000655C00F0E2804FEA5454D4EB5555B8BF7B
:1001B0006D420CDD2C4480EA020281EA030382EAEC
:1001C000000083EA010180EA020281EA0303362D7E
:1001D00088BF30BD11F0004F4FEA01314FF4801C51
:1001E0004CEA113102D0404261EB410113F0004F63
:1001F0004FEA03334CEA133302D0524263EB43031A
:1002000094EA050F00F0A780A4F10104D5F1200EB7
:100210000DDB02FA0EFC22FA05F2801841F1000112
:1002200003FA0EF2801843FA05F359410EE0A5F1E6
:1002300020050EF1200E012A03FA0EFC28BF4CF017
:10024000020C43FA05F3C01851EBE37101F00045CD
:1002500007D54FF0000EDCF1000C7EEB00006EEBDA
:100260000101B1F5801F1BD3B1F5001F0CD3490864
:100270005FEA30004FEA3C0C04F101044FEA4452BB
:1002800012F5800F80F09A80BCF1004F08BF5FEA42
:10029000500C50F1000041EB045141EA050130BD22
:1002A0005FEA4C0C404141EB010111F4801FA4F1C5
:1002B0000104E9D191F0000F04BF01460020B1FA1A
:1002C00081F308BF2033A3F10B03B3F120020CDA52
:1002D0000C3208DD02F1140CC2F10C0201FA0CF030
:1002E00021FA02F10CE002F11402D8BFC2F1200C95
:1002F00001FA02F120FA0CFCDCBF41EA0C0190404B
:10030000E41AA2BF01EB0451294330BD6FEA040493
:100310001F3C1CDA0C340EDC04F11404C4F120027E
:1003200020FA04F001FA02F340EA030021FA04F390
:1003300045EA030130BDC4F10C04C4F1200220FAE7
:1003400002F001FA04F340EA0300294630BD21FA25
:1003500004F0294630BD94F0000F83F4801306BFEB
:1003600081F480110134013D4EE77FEA645C18BFDF
:100370007FEA655C29D094EA050F08BF90EA020F76
:1003800005D054EA000C04BF1946104630BD91EA6E
:10039000030F1EBF0021002030BD5FEA545C05D171
:1003A0004000494128BF41F0004130BD14F58004B0
:1003B0003CBF01F5801130BD01F0004545F0FE4124
:1003C00041F470014FF0000030BD7FEA645C1ABF59
:1003D000194610467FEA655C1CBF0B46024650EA90
:1003E000013406BF52EA033591EA030F41F40021BC
:1003F00030BD00BF90F0000F04BF0021704730B542
:100400004FF4806404F132044FF000054FF0000116
:1004100050E700BF90F0000F04BF0021704730B5D7
:100420004FF4806404F1320410F0004548BF4042AC
:100430004FF000013EE700BF42004FEAE2014FEA01
:1004400031014FEA02701FBF12F07F4393F07F4FDC
:1004500081F06051704732F07F4208BF704793F0DF
:100460007F4F04BF41F40021704730B54FF46074F2
:1004700001F0004521F000411CE700BF50EA0102F5
:1004800008BF704730B54FF000050AE050EA01029E
:1004900008BF704730B511F0004502D5404261EB0E
:1004A00041014FF4806404F132045FEA915C3FF44F
:1004B000D8AE4FF003025FEADC0C18BF03325FEAEC
:1004C000DC0C18BF033202EBDC02C2F1200300FA9D
:1004D00003FC20FA02F001FA03FE40EA0E0021FAC2
:1004E00002F11444BDE600BF4FF0FF3C06E000BF40
:1004F0004FF0010C02E000BF4FF0010C4DF804CDAD
:100500004FEA410C7FEA6C5C4FEA430C18BF7FEA6C
:100510006C5C1BD001B050EA410C0CBF52EA430C9A
:1005200091EA030F02BF90EA020F0020704710F11A
:10053000000F91EA030F58BF994208BF90422CBFA9
:10054000D8176FEAE37040F0010070474FEA410CA2
:100550007FEA6C5C02D150EA013C07D14FEA430CC0
:100560007FEA6C5CD6D152EA033CD3D05DF8040B31
:10057000704700BF8446104662468C461946634663
:1005800000E000BF01B5FFF7B7FF002848BF10F13A
:10059000000F01BD4DF808EDFFF7F4FF0CBF01207F
:1005A00000205DF808FB00BF4DF808EDFFF7EAFFFB
:1005B00034BF012000205DF808FB00BF4DF808EDB6
:1005C000FFF7E0FF94BF012000205DF808FB00BFAB
:1005D0004DF808EDFFF7CEFF94BF012000205DF835
:1005E00008FB00BF4DF808EDFFF7C4FF34BF012042
:1005F00000205DF808FB00BF80B582B000AF00238B
:100600007B60274B1B68264A43F004031360254B8D
:100610001B68244A23F470031360224B1B68214A91
:1006200043F480131360204B1B681F4A43F40053AC
:1006300013601D4B1B681C4A43F4005313600023D6
:100640007B6002E07B6801337B607B681846FFF7C4
:10065000E1FE11A3D3E90023FFF7A6FF0346002B19
:10066000F0D1114B1B68104A23F400531360002390
:100670007B6002E07B6801337B607B681846FFF794
:10068000C9FE05A3D3E90023FFF78EFF0346002B25
:10069000F0D1CEE7AFF30080000000000088B34047
:1006A00018100240040801400C0801400D4885461E
:1006B000AFF300800C480D490D4A002302E0D458E6
:1006C000C4500433C4188C42F9D30A4A0A4C00239C
:1006D00001E013600432A242FBD300F011F8FFF7EF
:1006E0008BFFFEE700280020000000200000002013
:1006F00068070008000000201C000020FEE7000042
:1007000070B500250C4E0D4CA41BA410A54209D1B8
:1007100000F01AF800250A4E0A4CA41BA410A542AA
:1007200005D170BD56F8253098470135EEE756F8EB
:10073000253098470135F2E7600700086007000898
:100740006007000864070008F8B500BFF8BC08BCE3
:100750009E467047F8B500BFF8BC08BC9E4670477F
:040760005501000837
:040764003101000857
:04000005080006AD3C
:00000001FF
